{"abi":[{"type":"constructor","inputs":[{"name":"_registry","type":"address","internalType":"address"},{"name":"_agentId","type":"uint256","internalType":"uint256"},{"name":"_usdy","type":"address","internalType":"address"},{"name":"_meth","type":"address","internalType":"address"},{"name":"_fbtc","type":"address","internalType":"address"}],"stateMutability":"nonpayable"},{"type":"function","name":"deposit","inputs":[{"name":"amount","type":"uint256","internalType":"uint256"},{"name":"token","type":"address","internalType":"address"}],"outputs":[],"stateMutability":"nonpayable"},{"type":"function","name":"fbtc","inputs":[],"outputs":[{"name":"","type":"address","internalType":"contract MockERC20"}],"stateMutability":"view"},{"type":"function","name":"fbtcAllocation","inputs":[],"outputs":[{"name":"","type":"uint256","internalType":"uint256"}],"stateMutability":"view"},{"type":"function","name":"isWhitelisted","inputs":[{"name":"","type":"address","internalType":"address"}],"outputs":[{"name":"","type":"bool","internalType":"bool"}],"stateMutability":"view"},{"type":"function","name":"kratosAgentId","inputs":[],"outputs":[{"name":"","type":"uint256","internalType":"uint256"}],"stateMutability":"view"},{"type":"function","name":"meth","inputs":[],"outputs":[{"name":"","type":"address","internalType":"contract MockERC20"}],"stateMutability":"view"},{"type":"function","name":"methAllocation","inputs":[],"outputs":[{"name":"","type":"uint256","internalType":"uint256"}],"stateMutability":"view"},{"type":"function","name":"owner","inputs":[],"outputs":[{"name":"","type":"address","internalType":"address"}],"stateMutability":"view"},{"type":"function","name":"rebalance","inputs":[{"name":"_usdyPct","type":"uint256","internalType":"uint256"},{"name":"_methPct","type":"uint256","internalType":"uint256"},{"name":"_fbtcPct","type":"uint256","internalType":"uint256"},{"name":"reasoningHash","type":"string","internalType":"string"},{"name":"xpAwarded","type":"uint256","internalType":"uint256"}],"outputs":[],"stateMutability":"nonpayable"},{"type":"function","name":"registry","inputs":[],"outputs":[{"name":"","type":"address","internalType":"contract IERC8004"}],"stateMutability":"view"},{"type":"function","name":"totalValueLocked","inputs":[],"outputs":[{"name":"","type":"uint256","internalType":"uint256"}],"stateMutability":"view"},{"type":"function","name":"updateWhitelist","inputs":[{"name":"_user","type":"address","internalType":"address"},{"name":"_status","type":"bool","internalType":"bool"}],"outputs":[],"stateMutability":"nonpayable"},{"type":"function","name":"usdy","inputs":[],"outputs":[{"name":"","type":"address","internalType":"contract MockERC20"}],"stateMutability":"view"},{"type":"function","name":"usdyAllocation","inputs":[],"outputs":[{"name":"","type":"uint256","internalType":"uint256"}],"stateMutability":"view"},{"type":"function","name":"userDeposits","inputs":[{"name":"","type":"address","internalType":"address"},{"name":"","type":"address","internalType":"address"}],"outputs":[{"name":"","type":"uint256","internalType":"uint256"}],"stateMutability":"view"},{"type":"event","name":"Deposited","inputs":[{"name":"user","type":"address","indexed":true,"internalType":"address"},{"name":"token","type":"address","indexed":true,"internalType":"address"},{"name":"amount","type":"uint256","indexed":false,"internalType":"uint256"}],"anonymous":false},{"type":"event","name":"Rebalance","inputs":[{"name":"usdyPct","type":"uint256","indexed":false,"internalType":"uint256"},{"name":"methPct","type":"uint256","indexed":false,"internalType":"uint256"},{"name":"fbtcPct","type":"uint256","indexed":false,"internalType":"uint256"}],"anonymous":false}],"bytecode":{"object":"0x608060405234801561000f575f5ffd5b5060405161152438038061152483398181016040528101906100319190610267565b335f5f6101000a81548173ffffffffffffffffffffffffffffffffffffffff021916908373ffffffffffffffffffffffffffffffffffffffff1602179055508460015f6101000a81548173ffffffffffffffffffffffffffffffffffffffff021916908373ffffffffffffffffffffffffffffffffffffffff160217905550836002819055508260035f6101000a81548173ffffffffffffffffffffffffffffffffffffffff021916908373ffffffffffffffffffffffffffffffffffffffff1602179055508160045f6101000a81548173ffffffffffffffffffffffffffffffffffffffff021916908373ffffffffffffffffffffffffffffffffffffffff1602179055508060055f6101000a81548173ffffffffffffffffffffffffffffffffffffffff021916908373ffffffffffffffffffffffffffffffffffffffff1602179055506001600a5f3373ffffffffffffffffffffffffffffffffffffffff1673ffffffffffffffffffffffffffffffffffffffff1681526020019081526020015f205f6101000a81548160ff02191690831515021790555050505050506102de565b5f5ffd5b5f73ffffffffffffffffffffffffffffffffffffffff82169050919050565b5f610203826101da565b9050919050565b610213816101f9565b811461021d575f5ffd5b50565b5f8151905061022e8161020a565b92915050565b5f819050919050565b61024681610234565b8114610250575f5ffd5b50565b5f815190506102618161023d565b92915050565b5f5f5f5f5f60a086880312156102805761027f6101d6565b5b5f61028d88828901610220565b955050602061029e88828901610253565b94505060406102af88828901610220565b93505060606102c088828901610220565b92505060806102d188828901610220565b9150509295509295909350565b611239806102eb5f395ff3fe608060405234801561000f575f5ffd5b50600436106100f3575f3560e01c80636e553f6511610095578063aaeb79a411610064578063aaeb79a414610261578063aff0a7311461027f578063b119ab8e1461029b578063ec18154e146102b9576100f3565b80636e553f65146101eb5780637b103999146102075780638da5cb5b1461022557806398d506e914610243576100f3565b80633c9b1f5b116100d15780633c9b1f5b14610161578063436d80391461017f5780634923a40f146101af57806369b68986146101cd576100f3565b80630d392cd9146100f75780632eb3e1d1146101135780633af32abf14610131575b5f5ffd5b610111600480360381019061010c9190610ac9565b6102d7565b005b61011b6103bd565b6040516101289190610b62565b60405180910390f35b61014b60048036038101906101469190610b7b565b6103e2565b6040516101589190610bb5565b60405180910390f35b6101696103ff565b6040516101769190610b62565b60405180910390f35b61019960048036038101906101949190610bce565b610424565b6040516101a69190610c24565b60405180910390f35b6101b7610444565b6040516101c49190610c24565b60405180910390f35b6101d561044a565b6040516101e29190610c24565b60405180910390f35b61020560048036038101906102009190610c67565b610450565b005b61020f6107e3565b60405161021c9190610cc5565b60405180910390f35b61022d610808565b60405161023a9190610ced565b60405180910390f35b61024b61082c565b6040516102589190610b62565b60405180910390f35b610269610851565b6040516102769190610c24565b60405180910390f35b61029960048036038101906102949190610d67565b610857565b005b6102a3610a26565b6040516102b09190610c24565b60405180910390f35b6102c1610a2c565b6040516102ce9190610c24565b60405180910390f35b5f5f9054906101000a900473ffffffffffffffffffffffffffffffffffffffff1673ffffffffffffffffffffffffffffffffffffffff163373ffffffffffffffffffffffffffffffffffffffff1614610365576040517f08c379a000000000000000000000000000000000000000000000000000000000815260040161035c90610e57565b60405180910390fd5b80600a5f8473ffffffffffffffffffffffffffffffffffffffff1673ffffffffffffffffffffffffffffffffffffffff1681526020019081526020015f205f6101000a81548160ff0219169083151502179055505050565b60055f9054906101000a900473ffffffffffffffffffffffffffffffffffffffff1681565b600a602052805f5260405f205f915054906101000a900460ff1681565b60045f9054906101000a900473ffffffffffffffffffffffffffffffffffffffff1681565b600b602052815f5260405f20602052805f5260405f205f91509150505481565b60095481565b60085481565b33600a5f8273ffffffffffffffffffffffffffffffffffffffff1673ffffffffffffffffffffffffffffffffffffffff1681526020019081526020015f205f9054906101000a900460ff166104da576040517f08c379a00000000000000000000000000000000000000000000000000000000081526004016104d190610ebf565b60405180910390fd5b60035f9054906101000a900473ffffffffffffffffffffffffffffffffffffffff1673ffffffffffffffffffffffffffffffffffffffff168273ffffffffffffffffffffffffffffffffffffffff161480610581575060045f9054906101000a900473ffffffffffffffffffffffffffffffffffffffff1673ffffffffffffffffffffffffffffffffffffffff168273ffffffffffffffffffffffffffffffffffffffff16145b806105d8575060055f9054906101000a900473ffffffffffffffffffffffffffffffffffffffff1673ffffffffffffffffffffffffffffffffffffffff168273ffffffffffffffffffffffffffffffffffffffff16145b610617576040517f08c379a000000000000000000000000000000000000000000000000000000000815260040161060e90610f27565b60405180910390fd5b8173ffffffffffffffffffffffffffffffffffffffff166323b872dd3330866040518463ffffffff1660e01b815260040161065493929190610f45565b6020604051808303815f875af1158015610670573d5f5f3e3d5ffd5b505050506040513d601f19601f820116820180604052508101906106949190610f8e565b6106d3576040517f08c379a00000000000000000000000000000000000000000000000000000000081526004016106ca90611003565b60405180910390fd5b82600b5f3373ffffffffffffffffffffffffffffffffffffffff1673ffffffffffffffffffffffffffffffffffffffff1681526020019081526020015f205f8473ffffffffffffffffffffffffffffffffffffffff1673ffffffffffffffffffffffffffffffffffffffff1681526020019081526020015f205f82825461075a919061104e565b925050819055508260065f828254610772919061104e565b925050819055508173ffffffffffffffffffffffffffffffffffffffff163373ffffffffffffffffffffffffffffffffffffffff167f8752a472e571a816aea92eec8dae9baf628e840f4929fbcc2d155e6233ff68a7856040516107d69190610c24565b60405180910390a3505050565b60015f9054906101000a900473ffffffffffffffffffffffffffffffffffffffff1681565b5f5f9054906101000a900473ffffffffffffffffffffffffffffffffffffffff1681565b60035f9054906101000a900473ffffffffffffffffffffffffffffffffffffffff1681565b60025481565b5f5f9054906101000a900473ffffffffffffffffffffffffffffffffffffffff1673ffffffffffffffffffffffffffffffffffffffff163373ffffffffffffffffffffffffffffffffffffffff16146108e5576040517f08c379a00000000000000000000000000000000000000000000000000000000081526004016108dc90610e57565b60405180910390fd5b6127108486886108f5919061104e565b6108ff919061104e565b1461093f576040517f08c379a0000000000000000000000000000000000000000000000000000000008152600401610936906110cb565b60405180910390fd5b85600781905550846008819055508360098190555060015f9054906101000a900473ffffffffffffffffffffffffffffffffffffffff1673ffffffffffffffffffffffffffffffffffffffff1663210fb0cb6002548585856040518563ffffffff1660e01b81526004016109b6949392919061117d565b5f604051808303815f87803b1580156109cd575f5ffd5b505af11580156109df573d5f5f3e3d5ffd5b505050507fe0b4077da7dfa5015ff10fab6a214f37acc1b23d745f30336942d17e07848c6b868686604051610a16939291906111ce565b60405180910390a1505050505050565b60075481565b60065481565b5f5ffd5b5f5ffd5b5f73ffffffffffffffffffffffffffffffffffffffff82169050919050565b5f610a6382610a3a565b9050919050565b610a7381610a59565b8114610a7d575f5ffd5b50565b5f81359050610a8e81610a6a565b92915050565b5f8115159050919050565b610aa881610a94565b8114610ab2575f5ffd5b50565b5f81359050610ac381610a9f565b92915050565b5f5f60408385031215610adf57610ade610a32565b5b5f610aec85828601610a80565b9250506020610afd85828601610ab5565b9150509250929050565b5f819050919050565b5f610b2a610b25610b2084610a3a565b610b07565b610a3a565b9050919050565b5f610b3b82610b10565b9050919050565b5f610b4c82610b31565b9050919050565b610b5c81610b42565b82525050565b5f602082019050610b755f830184610b53565b92915050565b5f60208284031215610b9057610b8f610a32565b5b5f610b9d84828501610a80565b91505092915050565b610baf81610a94565b82525050565b5f602082019050610bc85f830184610ba6565b92915050565b5f5f60408385031215610be457610be3610a32565b5b5f610bf185828601610a80565b9250506020610c0285828601610a80565b9150509250929050565b5f819050919050565b610c1e81610c0c565b82525050565b5f602082019050610c375f830184610c15565b92915050565b610c4681610c0c565b8114610c50575f5ffd5b50565b5f81359050610c6181610c3d565b92915050565b5f5f60408385031215610c7d57610c7c610a32565b5b5f610c8a85828601610c53565b9250506020610c9b85828601610a80565b9150509250929050565b5f610caf82610b31565b9050919050565b610cbf81610ca5565b82525050565b5f602082019050610cd85f830184610cb6565b92915050565b610ce781610a59565b82525050565b5f602082019050610d005f830184610cde565b92915050565b5f5ffd5b5f5ffd5b5f5ffd5b5f5f83601f840112610d2757610d26610d06565b5b8235905067ffffffffffffffff811115610d4457610d43610d0a565b5b602083019150836001820283011115610d6057610d5f610d0e565b5b9250929050565b5f5f5f5f5f5f60a08789031215610d8157610d80610a32565b5b5f610d8e89828a01610c53565b9650506020610d9f89828a01610c53565b9550506040610db089828a01610c53565b945050606087013567ffffffffffffffff811115610dd157610dd0610a36565b5b610ddd89828a01610d12565b93509350506080610df089828a01610c53565b9150509295509295509295565b5f82825260208201905092915050565b7f4f6e6c79206167656e74206f776e6572000000000000000000000000000000005f82015250565b5f610e41601083610dfd565b9150610e4c82610e0d565b602082019050919050565b5f6020820190508181035f830152610e6e81610e35565b9050919050565b7f41646472657373206e6f74204b59432f414d4c207665726966696564000000005f82015250565b5f610ea9601c83610dfd565b9150610eb482610e75565b602082019050919050565b5f6020820190508181035f830152610ed681610e9d565b9050919050565b7f556e737570706f727465642061737365740000000000000000000000000000005f82015250565b5f610f11601183610dfd565b9150610f1c82610edd565b602082019050919050565b5f6020820190508181035f830152610f3e81610f05565b9050919050565b5f606082019050610f585f830186610cde565b610f656020830185610cde565b610f726040830184610c15565b949350505050565b5f81519050610f8881610a9f565b92915050565b5f60208284031215610fa357610fa2610a32565b5b5f610fb084828501610f7a565b91505092915050565b7f5472616e73666572206661696c656400000000000000000000000000000000005f82015250565b5f610fed600f83610dfd565b9150610ff882610fb9565b602082019050919050565b5f6020820190508181035f83015261101a81610fe1565b9050919050565b7f4e487b71000000000000000000000000000000000000000000000000000000005f52601160045260245ffd5b5f61105882610c0c565b915061106383610c0c565b925082820190508082111561107b5761107a611021565b5b92915050565b7f4d7573742073756d20746f2031303025000000000000000000000000000000005f82015250565b5f6110b5601083610dfd565b91506110c082611081565b602082019050919050565b5f6020820190508181035f8301526110e2816110a9565b9050919050565b828183375f83830152505050565b5f601f19601f8301169050919050565b5f6111128385610dfd565b935061111f8385846110e9565b611128836110f7565b840190509392505050565b7f524542414c414e43455f455845435554454400000000000000000000000000005f82015250565b5f611167601283610dfd565b915061117282611133565b602082019050919050565b5f6080820190506111905f830187610c15565b81810360208301526111a3818587611107565b905081810360408301526111b68161115b565b90506111c56060830184610c15565b95945050505050565b5f6060820190506111e15f830186610c15565b6111ee6020830185610c15565b6111fb6040830184610c15565b94935050505056fea2646970667358221220624f67738172968f79bc7afafc11e1da53128219cfcdfc06f1127e289d0396d064736f6c63430008230033","linkReferences":{}},"methodIdentifiers":{"deposit(uint256,address)":"6e553f65","fbtc()":"2eb3e1d1","fbtcAllocation()":"4923a40f","isWhitelisted(address)":"3af32abf","kratosAgentId()":"aaeb79a4","meth()":"3c9b1f5b","methAllocation()":"69b68986","owner()":"8da5cb5b","rebalance(uint256,uint256,uint256,string,uint256)":"aff0a731","registry()":"7b103999","totalValueLocked()":"ec18154e","updateWhitelist(address,bool)":"0d392cd9","usdy()":"98d506e9","usdyAllocation()":"b119ab8e","userDeposits(address,address)":"436d8039"},"id":16}