{"abi":[{"type":"constructor","inputs":[],"stateMutability":"nonpayable"},{"type":"function","name":"agentMetadata","inputs":[{"name":"","type":"uint256","internalType":"uint256"}],"outputs":[{"name":"","type":"string","internalType":"string"}],"stateMutability":"view"},{"type":"function","name":"agentReputation","inputs":[{"name":"","type":"uint256","internalType":"uint256"}],"outputs":[{"name":"","type":"uint256","internalType":"uint256"}],"stateMutability":"view"},{"type":"function","name":"approve","inputs":[{"name":"to","type":"address","internalType":"address"},{"name":"tokenId","type":"uint256","internalType":"uint256"}],"outputs":[],"stateMutability":"nonpayable"},{"type":"function","name":"balanceOf","inputs":[{"name":"owner","type":"address","internalType":"address"}],"outputs":[{"name":"","type":"uint256","internalType":"uint256"}],"stateMutability":"view"},{"type":"function","name":"getAgentReputation","inputs":[{"name":"agentId","type":"uint256","internalType":"uint256"}],"outputs":[{"name":"","type":"uint256","internalType":"uint256"}],"stateMutability":"view"},{"type":"function","name":"getApproved","inputs":[{"name":"tokenId","type":"uint256","internalType":"uint256"}],"outputs":[{"name":"","type":"address","internalType":"address"}],"stateMutability":"view"},{"type":"function","name":"isApprovedForAll","inputs":[{"name":"owner","type":"address","internalType":"address"},{"name":"operator","type":"address","internalType":"address"}],"outputs":[{"name":"","type":"bool","internalType":"bool"}],"stateMutability":"view"},{"type":"function","name":"logAction","inputs":[{"name":"agentId","type":"uint256","internalType":"uint256"},{"name":"reasoningHash","type":"string","internalType":"string"},{"name":"outcome","type":"string","internalType":"string"},{"name":"xpAwarded","type":"uint256","internalType":"uint256"}],"outputs":[],"stateMutability":"nonpayable"},{"type":"function","name":"mintIdentity","inputs":[{"name":"to","type":"address","internalType":"address"},{"name":"metadataURI","type":"string","internalType":"string"}],"outputs":[{"name":"","type":"uint256","internalType":"uint256"}],"stateMutability":"nonpayable"},{"type":"function","name":"name","inputs":[],"outputs":[{"name":"","type":"string","internalType":"string"}],"stateMutability":"view"},{"type":"function","name":"ownerOf","inputs":[{"name":"tokenId","type":"uint256","internalType":"uint256"}],"outputs":[{"name":"","type":"address","internalType":"address"}],"stateMutability":"view"},{"type":"function","name":"safeTransferFrom","inputs":[{"name":"from","type":"address","internalType":"address"},{"name":"to","type":"address","internalType":"address"},{"name":"tokenId","type":"uint256","internalType":"uint256"}],"outputs":[],"stateMutability":"nonpayable"},{"type":"function","name":"safeTransferFrom","inputs":[{"name":"from","type":"address","internalType":"address"},{"name":"to","type":"address","internalType":"address"},{"name":"tokenId","type":"uint256","internalType":"uint256"},{"name":"data","type":"bytes","internalType":"bytes"}],"outputs":[],"stateMutability":"nonpayable"},{"type":"function","name":"setApprovalForAll","inputs":[{"name":"operator","type":"address","internalType":"address"},{"name":"approved","type":"bool","internalType":"bool"}],"outputs":[],"stateMutability":"nonpayable"},{"type":"function","name":"supportsInterface","inputs":[{"name":"interfaceId","type":"bytes4","internalType":"bytes4"}],"outputs":[{"name":"","type":"bool","internalType":"bool"}],"stateMutability":"view"},{"type":"function","name":"symbol","inputs":[],"outputs":[{"name":"","type":"string","internalType":"string"}],"stateMutability":"view"},{"type":"function","name":"tokenURI","inputs":[{"name":"tokenId","type":"uint256","internalType":"uint256"}],"outputs":[{"name":"","type":"string","internalType":"string"}],"stateMutability":"view"},{"type":"function","name":"transferFrom","inputs":[{"name":"from","type":"address","internalType":"address"},{"name":"to","type":"address","internalType":"address"},{"name":"tokenId","type":"uint256","internalType":"uint256"}],"outputs":[],"stateMutability":"nonpayable"},{"type":"event","name":"ActionLogged","inputs":[{"name":"agentId","type":"uint256","indexed":true,"internalType":"uint256"},{"name":"reasoningHash","type":"string","indexed":false,"internalType":"string"},{"name":"outcome","type":"string","indexed":false,"internalType":"string"},{"name":"xpAwarded","type":"uint256","indexed":false,"internalType":"uint256"}],"anonymous":false},{"type":"event","name":"Approval","inputs":[{"name":"owner","type":"address","indexed":true,"internalType":"address"},{"name":"approved","type":"address","indexed":true,"internalType":"address"},{"name":"tokenId","type":"uint256","indexed":true,"internalType":"uint256"}],"anonymous":false},{"type":"event","name":"ApprovalForAll","inputs":[{"name":"owner","type":"address","indexed":true,"internalType":"address"},{"name":"operator","type":"address","indexed":true,"internalType":"address"},{"name":"approved","type":"bool","indexed":false,"internalType":"bool"}],"anonymous":false},{"type":"event","name":"Transfer","inputs":[{"name":"from","type":"address","indexed":true,"internalType":"address"},{"name":"to","type":"address","indexed":true,"internalType":"address"},{"name":"tokenId","type":"uint256","indexed":true,"internalType":"uint256"}],"anonymous":false},{"type":"error","name":"ERC721IncorrectOwner","inputs":[{"name":"sender","type":"address","internalType":"address"},{"name":"tokenId","type":"uint256","internalType":"uint256"},{"name":"owner","type":"address","internalType":"address"}]},{"type":"error","name":"ERC721InsufficientApproval","inputs":[{"name":"operator","type":"address","internalType":"address"},{"name":"tokenId","type":"uint256","internalType":"uint256"}]},{"type":"error","name":"ERC721InvalidApprover","inputs":[{"name":"approver","type":"address","internalType":"address"}]},{"type":"error","name":"ERC721InvalidOperator","inputs":[{"name":"operator","type":"address","internalType":"address"}]},{"type":"error","name":"ERC721InvalidOwner","inputs":[{"name":"owner","type":"address","internalType":"address"}]},{"type":"error","name":"ERC721InvalidReceiver","inputs":[{"name":"receiver","type":"address","internalType":"address"}]},{"type":"error","name":"ERC721InvalidSender","inputs":[{"name":"sender","type":"address","internalType":"address"}]},{"type":"error","name":"ERC721NonexistentToken","inputs":[{"name":"tokenId","type":"uint256","internalType":"uint256"}]}],"bytecode":{"object":"0x608060405234801561000f575f5ffd5b506040518060400160405280601581526020017f4b7261746f73204167656e74204964656e7469747900000000000000000000008152506040518060400160405280600681526020017f4b5241544f530000000000000000000000000000000000000000000000000000815250815f908161008a91906102f0565b50806001908161009a91906102f0565b5050506103bf565b5f81519050919050565b7f4e487b71000000000000000000000000000000000000000000000000000000005f52604160045260245ffd5b7f4e487b71000000000000000000000000000000000000000000000000000000005f52602260045260245ffd5b5f600282049050600182168061011d57607f821691505b6020821081036101305761012f6100d9565b5b50919050565b5f819050815f5260205f209050919050565b5f6020601f8301049050919050565b5f82821b905092915050565b5f600883026101927fffffffffffffffffffffffffffffffffffffffffffffffffffffffffffffffff82610157565b61019c8683610157565b95508019841693508086168417925050509392505050565b5f819050919050565b5f819050919050565b5f6101e06101db6101d6846101b4565b6101bd565b6101b4565b9050919050565b5f819050919050565b6101f9836101c6565b61020d610205826101e7565b848454610163565b825550505050565b5f5f905090565b610224610215565b61022f8184846101f0565b505050565b5f5b828110156102555761024a5f82840161021c565b600181019050610236565b505050565b601f8211156102a857828211156102a75761027481610136565b61027d83610148565b61028685610148565b6020861015610293575f90505b8083016102a282840382610234565b505050505b5b505050565b5f82821c905092915050565b5f6102c85f19846008026102ad565b1980831691505092915050565b5f6102e083836102b9565b9150826002028217905092915050565b6102f9826100a2565b67ffffffffffffffff811115610312576103116100ac565b5b61031c8254610106565b61032782828561025a565b5f60209050601f831160018114610358575f8415610346578287015190505b61035085826102d5565b8655506103b7565b601f19841661036686610136565b5f5b8281101561038d57848901518255600182019150602085019450602081019050610368565b868310156103aa57848901516103a6601f8916826102b9565b8355505b6001600288020188555050505b505050505050565b612644806103cc5f395ff3fe608060405234801561000f575f5ffd5b5060043610610114575f3560e01c806370a08231116100a0578063b88d4fde1161006f578063b88d4fde14610300578063c87b56dd1461031c578063cb43091f1461034c578063debfc4ef1461037c578063e985e9c5146103ac57610114565b806370a082311461026657806395d89b4114610296578063a22cb465146102b4578063a96886f1146102d057610114565b8063210fb0cb116100e7578063210fb0cb146101b257806323b872dd146101ce57806342842e0e146101ea57806347a95efb146102065780636352211e1461023657610114565b806301ffc9a71461011857806306fdde0314610148578063081812fc14610166578063095ea7b314610196575b5f5ffd5b610132600480360381019061012d91906118f5565b6103dc565b60405161013f919061193a565b60405180910390f35b6101506104bd565b60405161015d91906119c3565b60405180910390f35b610180600480360381019061017b9190611a16565b61054c565b60405161018d9190611a80565b60405180910390f35b6101b060048036038101906101ab9190611ac3565b610567565b005b6101cc60048036038101906101c79190611b62565b61057d565b005b6101e860048036038101906101e39190611c05565b610664565b005b61020460048036038101906101ff9190611c05565b610763565b005b610220600480360381019061021b9190611a16565b610782565b60405161022d91906119c3565b60405180910390f35b610250600480360381019061024b9190611a16565b61081d565b60405161025d9190611a80565b60405180910390f35b610280600480360381019061027b9190611c55565b61082e565b60405161028d9190611c8f565b60405180910390f35b61029e6108e4565b6040516102ab91906119c3565b60405180910390f35b6102ce60048036038101906102c99190611cd2565b610974565b005b6102ea60048036038101906102e59190611e38565b61098a565b6040516102f79190611c8f565b60405180910390f35b61031a60048036038101906103159190611f30565b6109d7565b005b61033660048036038101906103319190611a16565b6109fc565b60405161034391906119c3565b60405180910390f35b61036660048036038101906103619190611a16565b610a62565b6040516103739190611c8f565b60405180910390f35b61039660048036038101906103919190611a16565b610a7c565b6040516103a39190611c8f565b60405180910390f35b6103c660048036038101906103c19190611fb0565b610a91565b6040516103d3919061193a565b60405180910390f35b5f7f80ac58cd000000000000000000000000000000000000000000000000000000007bffffffffffffffffffffffffffffffffffffffffffffffffffffffff1916827bffffffffffffffffffffffffffffffffffffffffffffffffffffffff191614806104a657507f5b5e139f000000000000000000000000000000000000000000000000000000007bffffffffffffffffffffffffffffffffffffffffffffffffffffffff1916827bffffffffffffffffffffffffffffffffffffffffffffffffffffffff1916145b806104b657506104b582610b1f565b5b9050919050565b60605f80546104cb9061201b565b80601f01602080910402602001604051908101604052809291908181526020018280546104f79061201b565b80156105425780601f1061051957610100808354040283529160200191610542565b820191905f5260205f20905b81548152906001019060200180831161052557829003601f168201915b5050505050905090565b5f61055682610b88565b5061056082610c0e565b9050919050565b6105798282610574610c47565b610c4e565b5050565b853373ffffffffffffffffffffffffffffffffffffffff1661059e8261081d565b73ffffffffffffffffffffffffffffffffffffffff16146105f4576040517f08c379a00000000000000000000000000000000000000000000000000000000081526004016105eb90612095565b60405180910390fd5b8160075f8981526020019081526020015f205f82825461061491906120e0565b92505081905550867f16cff1544241acb3e635bfab6a385865d1e95389272b9da5a8c9cc55db2eeb72878787878760405161065395949392919061213f565b60405180910390a250505050505050565b5f73ffffffffffffffffffffffffffffffffffffffff168273ffffffffffffffffffffffffffffffffffffffff16036106d4575f6040517f64a0ae920000000000000000000000000000000000000000000000000000000081526004016106cb9190611a80565b60405180910390fd5b5f6106e783836106e2610c47565b610c60565b90508373ffffffffffffffffffffffffffffffffffffffff168173ffffffffffffffffffffffffffffffffffffffff161461075d578382826040517f64283d7b00000000000000000000000000000000000000000000000000000000815260040161075493929190612186565b60405180910390fd5b50505050565b61077d83838360405180602001604052805f8152506109d7565b505050565b6008602052805f5260405f205f91509050805461079e9061201b565b80601f01602080910402602001604051908101604052809291908181526020018280546107ca9061201b565b80156108155780601f106107ec57610100808354040283529160200191610815565b820191905f5260205f20905b8154815290600101906020018083116107f857829003601f168201915b505050505081565b5f61082782610b88565b9050919050565b5f5f73ffffffffffffffffffffffffffffffffffffffff168273ffffffffffffffffffffffffffffffffffffffff160361089f575f6040517f89c62b640000000000000000000000000000000000000000000000000000000081526004016108969190611a80565b60405180910390fd5b60035f8373ffffffffffffffffffffffffffffffffffffffff1673ffffffffffffffffffffffffffffffffffffffff1681526020019081526020015f20549050919050565b6060600180546108f39061201b565b80601f016020809104026020016040519081016040528092919081815260200182805461091f9061201b565b801561096a5780601f106109415761010080835404028352916020019161096a565b820191905f5260205f20905b81548152906001019060200180831161094d57829003601f168201915b5050505050905090565b61098661097f610c47565b8383610e6b565b5050565b5f5f60065f81548092919061099e906121bb565b9190505590506109ae8482611044565b8260085f8381526020019081526020015f2090816109cc91906123b3565b508091505092915050565b6109e2848484610664565b6109f66109ed610c47565b85858585611137565b50505050565b6060610a0782610b88565b505f610a116112e3565b90505f815111610a2f5760405180602001604052805f815250610a5a565b80610a39846112f9565b604051602001610a4a9291906124bc565b6040516020818303038152906040525b915050919050565b5f60075f8381526020019081526020015f20549050919050565b6007602052805f5260405f205f915090505481565b5f60055f8473ffffffffffffffffffffffffffffffffffffffff1673ffffffffffffffffffffffffffffffffffffffff1681526020019081526020015f205f8373ffffffffffffffffffffffffffffffffffffffff1673ffffffffffffffffffffffffffffffffffffffff1681526020019081526020015f205f9054906101000a900460ff16905092915050565b5f7f01ffc9a7000000000000000000000000000000000000000000000000000000007bffffffffffffffffffffffffffffffffffffffffffffffffffffffff1916827bffffffffffffffffffffffffffffffffffffffffffffffffffffffff1916149050919050565b5f5f610b93836113c3565b90505f73ffffffffffffffffffffffffffffffffffffffff168173ffffffffffffffffffffffffffffffffffffffff1603610c0557826040517f7e273289000000000000000000000000000000000000000000000000000000008152600401610bfc9190611c8f565b60405180910390fd5b80915050919050565b5f60045f8381526020019081526020015f205f9054906101000a900473ffffffffffffffffffffffffffffffffffffffff169050919050565b5f33905090565b610c5b83838360016113fc565b505050565b5f5f610c6b846113c3565b90505f73ffffffffffffffffffffffffffffffffffffffff168373ffffffffffffffffffffffffffffffffffffffff1614610cac57610cab8184866115bb565b5b5f73ffffffffffffffffffffffffffffffffffffffff168173ffffffffffffffffffffffffffffffffffffffff1614610d3757610ceb5f855f5f6113fc565b600160035f8373ffffffffffffffffffffffffffffffffffffffff1673ffffffffffffffffffffffffffffffffffffffff1681526020019081526020015f205f82825403925050819055505b5f73ffffffffffffffffffffffffffffffffffffffff168573ffffffffffffffffffffffffffffffffffffffff1614610db657600160035f8773ffffffffffffffffffffffffffffffffffffffff1673ffffffffffffffffffffffffffffffffffffffff1681526020019081526020015f205f82825401925050819055505b8460025f8681526020019081526020015f205f6101000a81548173ffffffffffffffffffffffffffffffffffffffff021916908373ffffffffffffffffffffffffffffffffffffffff160217905550838573ffffffffffffffffffffffffffffffffffffffff168273ffffffffffffffffffffffffffffffffffffffff167fddf252ad1be2c89b69c2b068fc378daa952ba7f163c4a11628f55a4df523b3ef60405160405180910390a4809150509392505050565b5f73ffffffffffffffffffffffffffffffffffffffff168373ffffffffffffffffffffffffffffffffffffffff1603610edb575f6040517fa9fbf51f000000000000000000000000000000000000000000000000000000008152600401610ed29190611a80565b60405180910390fd5b5f73ffffffffffffffffffffffffffffffffffffffff168273ffffffffffffffffffffffffffffffffffffffff1603610f4b57816040517f5b08ba18000000000000000000000000000000000000000000000000000000008152600401610f429190611a80565b60405180910390fd5b8060055f8573ffffffffffffffffffffffffffffffffffffffff1673ffffffffffffffffffffffffffffffffffffffff1681526020019081526020015f205f8473ffffffffffffffffffffffffffffffffffffffff1673ffffffffffffffffffffffffffffffffffffffff1681526020019081526020015f205f6101000a81548160ff0219169083151502179055508173ffffffffffffffffffffffffffffffffffffffff168373ffffffffffffffffffffffffffffffffffffffff167f17307eab39ab6107e8899845ad3d59bd9653f200f220920489ca2b5937696c3183604051611037919061193a565b60405180910390a3505050565b5f73ffffffffffffffffffffffffffffffffffffffff168273ffffffffffffffffffffffffffffffffffffffff16036110b4575f6040517f64a0ae920000000000000000000000000000000000000000000000000000000081526004016110ab9190611a80565b60405180910390fd5b5f6110c083835f610c60565b90505f73ffffffffffffffffffffffffffffffffffffffff168173ffffffffffffffffffffffffffffffffffffffff1614611132575f6040517f73c6ac6e0000000000000000000000000000000000000000000000000000000081526004016111299190611a80565b60405180910390fd5b505050565b5f8373ffffffffffffffffffffffffffffffffffffffff163b11156112dc578273ffffffffffffffffffffffffffffffffffffffff1663150b7a02868685856040518563ffffffff1660e01b81526004016111959493929190612531565b6020604051808303815f875af19250505080156111d057506040513d601f19601f820116820180604052508101906111cd919061258f565b60015b611251573d805f81146111fe576040519150601f19603f3d011682016040523d82523d5f602084013e611203565b606091505b505f81510361124957836040517f64a0ae920000000000000000000000000000000000000000000000000000000081526004016112409190611a80565b60405180910390fd5b805160208201fd5b63150b7a0260e01b7bffffffffffffffffffffffffffffffffffffffffffffffffffffffff1916817bffffffffffffffffffffffffffffffffffffffffffffffffffffffff1916146112da57836040517f64a0ae920000000000000000000000000000000000000000000000000000000081526004016112d19190611a80565b60405180910390fd5b505b5050505050565b606060405180602001604052805f815250905090565b60605f60016113078461167e565b0190505f8167ffffffffffffffff81111561132557611324611d14565b5b6040519080825280601f01601f1916602001820160405280156113575781602001600182028036833780820191505090505b5090505f82602083010190505b6001156113b8578080600190039150507f3031323334353637383961626364656600000000000000000000000000000000600a86061a8153600a85816113ad576113ac6125ba565b5b0494505f8503611364575b819350505050919050565b5f60025f8381526020019081526020015f205f9054906101000a900473ffffffffffffffffffffffffffffffffffffffff169050919050565b808061143457505f73ffffffffffffffffffffffffffffffffffffffff168273ffffffffffffffffffffffffffffffffffffffff1614155b15611566575f61144384610b88565b90505f73ffffffffffffffffffffffffffffffffffffffff168373ffffffffffffffffffffffffffffffffffffffff16141580156114ad57508273ffffffffffffffffffffffffffffffffffffffff168173ffffffffffffffffffffffffffffffffffffffff1614155b80156114c057506114be8184610a91565b155b1561150257826040517fa9fbf51f0000000000000000000000000000000000000000000000000000000081526004016114f99190611a80565b60405180910390fd5b811561156457838573ffffffffffffffffffffffffffffffffffffffff168273ffffffffffffffffffffffffffffffffffffffff167f8c5be1e5ebec7d5bd14f71427d1e84f3dd0314c0f7b2291e5b200ac8c7c3b92560405160405180910390a45b505b8360045f8581526020019081526020015f205f6101000a81548173ffffffffffffffffffffffffffffffffffffffff021916908373ffffffffffffffffffffffffffffffffffffffff16021790555050505050565b6115c68383836117cf565b611679575f73ffffffffffffffffffffffffffffffffffffffff168373ffffffffffffffffffffffffffffffffffffffff160361163a57806040517f7e2732890000000000000000000000000000000000000000000000000000000081526004016116319190611c8f565b60405180910390fd5b81816040517f177e802f0000000000000000000000000000000000000000000000000000000081526004016116709291906125e7565b60405180910390fd5b505050565b5f5f5f90507a184f03e93ff9f4daa797ed6e38ed64bf6a1f01000000000000000083106116da577a184f03e93ff9f4daa797ed6e38ed64bf6a1f01000000000000000083816116d0576116cf6125ba565b5b0492506040810190505b6d04ee2d6d415b85acef81000000008310611717576d04ee2d6d415b85acef8100000000838161170d5761170c6125ba565b5b0492506020810190505b662386f26fc10000831061174657662386f26fc10000838161173c5761173b6125ba565b5b0492506010810190505b6305f5e100831061176f576305f5e1008381611765576117646125ba565b5b0492506008810190505b612710831061179457612710838161178a576117896125ba565b5b0492506004810190505b606483106117b757606483816117ad576117ac6125ba565b5b0492506002810190505b600a83106117c6576001810190505b80915050919050565b5f5f73ffffffffffffffffffffffffffffffffffffffff168373ffffffffffffffffffffffffffffffffffffffff161415801561188657508273ffffffffffffffffffffffffffffffffffffffff168473ffffffffffffffffffffffffffffffffffffffff16148061184757506118468484610a91565b5b8061188557508273ffffffffffffffffffffffffffffffffffffffff1661186d83610c0e565b73ffffffffffffffffffffffffffffffffffffffff16145b5b90509392505050565b5f604051905090565b5f5ffd5b5f5ffd5b5f7fffffffff0000000000000000000000000000000000000000000000000000000082169050919050565b6118d4816118a0565b81146118de575f5ffd5b50565b5f813590506118ef816118cb565b92915050565b5f6020828403121561190a57611909611898565b5b5f611917848285016118e1565b91505092915050565b5f8115159050919050565b61193481611920565b82525050565b5f60208201905061194d5f83018461192b565b92915050565b5f81519050919050565b5f82825260208201905092915050565b8281835e5f83830152505050565b5f601f19601f8301169050919050565b5f61199582611953565b61199f818561195d565b93506119af81856020860161196d565b6119b88161197b565b840191505092915050565b5f6020820190508181035f8301526119db818461198b565b905092915050565b5f819050919050565b6119f5816119e3565b81146119ff575f5ffd5b50565b5f81359050611a10816119ec565b92915050565b5f60208284031215611a2b57611a2a611898565b5b5f611a3884828501611a02565b91505092915050565b5f73ffffffffffffffffffffffffffffffffffffffff82169050919050565b5f611a6a82611a41565b9050919050565b611a7a81611a60565b82525050565b5f602082019050611a935f830184611a71565b92915050565b611aa281611a60565b8114611aac575f5ffd5b50565b5f81359050611abd81611a99565b92915050565b5f5f60408385031215611ad957611ad8611898565b5b5f611ae685828601611aaf565b9250506020611af785828601611a02565b9150509250929050565b5f5ffd5b5f5ffd5b5f5ffd5b5f5f83601f840112611b2257611b21611b01565b5b8235905067ffffffffffffffff811115611b3f57611b3e611b05565b5b602083019150836001820283011115611b5b57611b5a611b09565b5b9250929050565b5f5f5f5f5f5f60808789031215611b7c57611b7b611898565b5b5f611b8989828a01611a02565b965050602087013567ffffffffffffffff811115611baa57611ba961189c565b5b611bb689828a01611b0d565b9550955050604087013567ffffffffffffffff811115611bd957611bd861189c565b5b611be589828a01611b0d565b93509350506060611bf889828a01611a02565b9150509295509295509295565b5f5f5f60608486031215611c1c57611c1b611898565b5b5f611c2986828701611aaf565b9350506020611c3a86828701611aaf565b9250506040611c4b86828701611a02565b9150509250925092565b5f60208284031215611c6a57611c69611898565b5b5f611c7784828501611aaf565b91505092915050565b611c89816119e3565b82525050565b5f602082019050611ca25f830184611c80565b92915050565b611cb181611920565b8114611cbb575f5ffd5b50565b5f81359050611ccc81611ca8565b92915050565b5f5f60408385031215611ce857611ce7611898565b5b5f611cf585828601611aaf565b9250506020611d0685828601611cbe565b9150509250929050565b5f5ffd5b7f4e487b71000000000000000000000000000000000000000000000000000000005f52604160045260245ffd5b611d4a8261197b565b810181811067ffffffffffffffff82111715611d6957611d68611d14565b5b80604052505050565b5f611d7b61188f565b9050611d878282611d41565b919050565b5f67ffffffffffffffff821115611da657611da5611d14565b5b611daf8261197b565b9050602081019050919050565b828183375f83830152505050565b5f611ddc611dd784611d8c565b611d72565b905082815260208101848484011115611df857611df7611d10565b5b611e03848285611dbc565b509392505050565b5f82601f830112611e1f57611e1e611b01565b5b8135611e2f848260208601611dca565b91505092915050565b5f5f60408385031215611e4e57611e4d611898565b5b5f611e5b85828601611aaf565b925050602083013567ffffffffffffffff811115611e7c57611e7b61189c565b5b611e8885828601611e0b565b9150509250929050565b5f67ffffffffffffffff821115611eac57611eab611d14565b5b611eb58261197b565b9050602081019050919050565b5f611ed4611ecf84611e92565b611d72565b905082815260208101848484011115611ef057611eef611d10565b5b611efb848285611dbc565b509392505050565b5f82601f830112611f1757611f16611b01565b5b8135611f27848260208601611ec2565b91505092915050565b5f5f5f5f60808587031215611f4857611f47611898565b5b5f611f5587828801611aaf565b9450506020611f6687828801611aaf565b9350506040611f7787828801611a02565b925050606085013567ffffffffffffffff811115611f9857611f9761189c565b5b611fa487828801611f03565b91505092959194509250565b5f5f60408385031215611fc657611fc5611898565b5b5f611fd385828601611aaf565b9250506020611fe485828601611aaf565b9150509250929050565b7f4e487b71000000000000000000000000000000000000000000000000000000005f52602260045260245ffd5b5f600282049050600182168061203257607f821691505b60208210810361204557612044611fee565b5b50919050565b7f4e6f74206167656e74206f776e657200000000000000000000000000000000005f82015250565b5f61207f600f8361195d565b915061208a8261204b565b602082019050919050565b5f6020820190508181035f8301526120ac81612073565b9050919050565b7f4e487b71000000000000000000000000000000000000000000000000000000005f52601160045260245ffd5b5f6120ea826119e3565b91506120f5836119e3565b925082820190508082111561210d5761210c6120b3565b5b92915050565b5f61211e838561195d565b935061212b838584611dbc565b6121348361197b565b840190509392505050565b5f6060820190508181035f830152612158818789612113565b9050818103602083015261216d818587612113565b905061217c6040830184611c80565b9695505050505050565b5f6060820190506121995f830186611a71565b6121a66020830185611c80565b6121b36040830184611a71565b949350505050565b5f6121c5826119e3565b91507fffffffffffffffffffffffffffffffffffffffffffffffffffffffffffffffff82036121f7576121f66120b3565b5b600182019050919050565b5f819050815f5260205f209050919050565b5f6020601f8301049050919050565b5f82821b905092915050565b5f6008830261225e7fffffffffffffffffffffffffffffffffffffffffffffffffffffffffffffffff82612223565b6122688683612223565b95508019841693508086168417925050509392505050565b5f819050919050565b5f6122a361229e612299846119e3565b612280565b6119e3565b9050919050565b5f819050919050565b6122bc83612289565b6122d06122c8826122aa565b84845461222f565b825550505050565b5f5f905090565b6122e76122d8565b6122f28184846122b3565b505050565b5f5b828110156123185761230d5f8284016122df565b6001810190506122f9565b505050565b601f82111561236b578282111561236a5761233781612202565b61234083612214565b61234985612214565b6020861015612356575f90505b808301612365828403826122f7565b505050505b5b505050565b5f82821c905092915050565b5f61238b5f1984600802612370565b1980831691505092915050565b5f6123a3838361237c565b9150826002028217905092915050565b6123bc82611953565b67ffffffffffffffff8111156123d5576123d4611d14565b5b6123df825461201b565b6123ea82828561231d565b5f60209050601f83116001811461241b575f8415612409578287015190505b6124138582612398565b86555061247a565b601f19841661242986612202565b5f5b828110156124505784890151825560018201915060208501945060208101905061242b565b8683101561246d5784890151612469601f89168261237c565b8355505b6001600288020188555050505b505050505050565b5f81905092915050565b5f61249682611953565b6124a08185612482565b93506124b081856020860161196d565b80840191505092915050565b5f6124c7828561248c565b91506124d3828461248c565b91508190509392505050565b5f81519050919050565b5f82825260208201905092915050565b5f612503826124df565b61250d81856124e9565b935061251d81856020860161196d565b6125268161197b565b840191505092915050565b5f6080820190506125445f830187611a71565b6125516020830186611a71565b61255e6040830185611c80565b818103606083015261257081846124f9565b905095945050505050565b5f81519050612589816118cb565b92915050565b5f602082840312156125a4576125a3611898565b5b5f6125b18482850161257b565b91505092915050565b7f4e487b71000000000000000000000000000000000000000000000000000000005f52601260045260245ffd5b5f6040820190506125fa5f830185611a71565b6126076020830184611c80565b939250505056fea26469706673582212207a43513740dcec173ebb2055ef9d2faa19bb480dd6de66728942fc0d7168488c64736f6c63430008230033","linkReferences":{}},"methodIdentifiers":{"agentMetadata(uint256)":"47a95efb","agentReputation(uint256)":"debfc4ef","approve(address,uint256)":"095ea7b3","balanceOf(address)":"70a08231","getAgentReputation(uint256)":"cb43091f","getApproved(uint256)":"081812fc","isApprovedForAll(address,address)":"e985e9c5","logAction(uint256,string,string,uint256)":"210fb0cb","mintIdentity(address,string)":"a96886f1","name()":"06fdde03","ownerOf(uint256)":"6352211e","safeTransferFrom(address,address,uint256)":"42842e0e","safeTransferFrom(address,address,uint256,bytes)":"b88d4fde","setApprovalForAll(address,bool)":"a22cb465","supportsInterface(bytes4)":"01ffc9a7","symbol()":"95d89b41","tokenURI(uint256)":"c87b56dd","transferFrom(address,address,uint256)":"23b872dd"},"id":15}